:020000040800F2
:10000000B00700208901000837130008C11200085A
:1000100035130008F3020008211400080000000056
:10002000000000000000000000000000A313000812
:100030004903000800000000A1130008A5130008F0
:10004000A3010008A3010008A3010008A301000800
:10005000A3010008A3010008A3010008A3010008F0
:10006000A3010008A3010008A3010008A3010008E0
:10007000A3010008A3010008A3010008A3010008D0
:10008000A3010008A3010008A30100080914000847
:1000900015140008F5020008A3010008A3010008D8
:1000A000A3010008A3010008A3010008A3010008A0
:1000B000A3010008A3010008A3010008A301000890
:1000C000A3010008A3010008A3010008A301000880
:1000D000A3010008A3010008A3010008A301000870
:1000E000A3010008A3010008A301000800F002F822
:1000F00000F03AF80AA090E8000C82448344AAF188
:100100000107DA4501D100F02FF8AFF2090EBAE885
:100110000F0013F0010F18BFFB1A43F0010318473B
:10012000AC190000CC190000103A24BF78C878C17F
:10013000FAD8520724BF30C830C144BF04680C60ED
:10014000704700000023002400250026103A28BF35
:1001500078C1FBD8520728BF30C148BF0B60704739
:100160001FB51FBD10B510BD00F08AF81146FFF78E
:10017000F7FF01F08DF900F0A8F803B4FFF7F2FFE4
:1001800003BC00F0AFF80000094880470948004769
:10019000FEE7FEE7FEE7FEE7FEE7FEE7FEE7FEE737
:1001A000FEE7FEE704480549054A064B7047000094
:1001B00007140008ED000008B0010020B00700207F
:1001C000B0030020B003002010B5203AC0F00B802F
:1001D000B1E81850203AA0E81850B1E81850A0E84B
:1001E0001850BFF4F5AF5FEA027C24BFB1E81850A5
:1001F000A0E8185044BF18C918C0BDE810405FEA15
:10020000827C24BF51F8043B40F8043B08BF704790
:10021000D20728BF31F8023B48BF11F8012B28BF95
:1002200020F8023B48BF00F8012B70474FF0000256
:1002300000B5134694469646203922BFA0E80C50DC
:10024000A0E80C50B1F12001BFF4F7AF090728BFB7
:10025000A0E80C5048BF0CC05DF804EB890028BF33
:1002600040F8042B08BF704748BF20F8022B11F05C
:10027000804F18BF00F8012B7047704770477047D8
:10028000754600F02BF8AE4605006946534620F04F
:100290000700854618B020B5FFF784FFBDE8204071
:1002A0004FF000064FF000074FF000084FF0000B32
:1002B00021F00701AC46ACE8C009ACE8C009ACE8E5
:1002C000C009ACE8C0098D46704710B50446AFF3CD
:1002D00000802046BDE81040FFF74FBF0048704740
:1002E0004C01002001491820ABBEFEE726000200A9
:1002F0007047FEE7014800F08DB90000C4000020FF
:1003000038B50E4C4FF4007525600025A560E560FA
:10031000082525610A4C050A25706070080AA0703E
:10032000E170100A20716271180AA071E3716B46C6
:1003300022460249034800F01CF838BD3401002071
:1003400009000020C4000020704772B6FEE790F854
:100350002020012A07D0022A05D0416A41F48021D9
:10036000416201207047006842690A4342610020EF
:100370007047F0B590F820500468A468012D05D0AE
:10038000022D03D0416A41F480214DE014F0406F0A
:1003900001D1E50045D5C4F301640125A5401D60E8
:1003A0008D684FF4C0739DB1CE6835434E6845EA01
:1003B000C605066803EB0417F5514FF4C2750768CC
:1003C00005EB04150E697E51097D012905D009E070
:1003D0000E88CD6845EA4655EBE701684E5946F46C
:1003E00080764E511179D2F805504FF4C67641EA25
:1003F0000521056806EB0416A9511178D2F80120F1
:100400004FF4C47541EA0221026805EB041551510D
:10041000006803EB0411425842F0010242500020F0
:10042000F0BD416A41F4001141620120F0BD0000BD
:1004300010B590F820300268012B07D0022B05D0B0
:10044000416A41F480214162012010BDD2F80002CE
:1004500040F00100C2F80002087D00F01F030120F7
:100460009840D2F81C328343C2F81C32CB69B3B92E
:10047000D2F80C328343C2F80C328C894B6864F397
:100480001F434C6902EBC404C4F840320C890B686A
:1004900064F31F434C6902EBC404C4F84432CB69D3
:1004A000012B16D1D2F80C320343C2F80C320C885F
:1004B0004B6864F31F434C6902EBC404C4F8403238
:1004C0000C89CB6864F31F434C6902EBC404C4F885
:1004D00044328B69002BD2F804320FD053EA000368
:1004E000C2F804320B69002BD2F8143208D003434F
:1004F000C2F81432096A012904D008E08343EFE707
:100500008343F5E7D2F81C120143C2F81C12D2F85B
:10051000000220F00100C2F80002002010BD704768
:1005200070B590F82040012C05D0022C03D0416A10
:1005300041F4802128E0046809B32469A40720D08D
:100540004FF4D874056804EB01142D5915F0040517
:10055000956005682D591AD0ED08556005682C592D
:1005600004F00204D4604FF4DA74056804EB01145B
:100570002E5906F00F06082E0CD308250DE0E4686E
:10058000DCE7416A41F400114162012070BD6D0D4C
:100590001560E3E72D5905F00F05156105682D5924
:1005A000C5F30725956105682C59240C54614FF457
:1005B000DC72046802EB0112A4581C700468A45891
:1005C000240A5C700468A458240C9C700468A25827
:1005D000120EDA704FF4DE72046802EB0112A458B6
:1005E0001C710468A458240A5C710468A458240C83
:1005F0009C710468A258120EDA71006829B1016971
:1006000041F020010161002070BDC16841F020016E
:10061000C160F8E72DE9F05F0546006800244669EF
:10062000D0F804908768D0F80CB0D0F810A0D0F8BB
:100630001880F10748D0F90714D001218160B8076C
:1006400003D5284600F035FA0CE0780702D54FF4C0
:10065000006407E0380702D54FF4805402E02846D2
:1006600000F026FAF80516D529684FF480708860E6
:10067000B80503D5284600F01EFA0CE0780502D52F
:1006800044F4005407E0380502D544F4804402E005
:10069000284600F00FFAF80316D529684FF4803089
:1006A0008860B80303D5284600F007FA0CE0780309
:1006B00002D544F4004407E0380302D544F4803402
:1006C00002E0284600F0F8F9300707D55FEACB6072
:1006D00004D52968102044F40074C86070074FF0F6
:1006E000080707D55FEA0B7004D52868C76028465D
:1006F00000F06AF9B00706D52868C068800702D004
:10070000284600F063F9700607D55FEACA6004D591
:100710002968102044F480640861B00607D55FEAB8
:100720000A7004D528680761284600F091F9F006A0
:1007300006D528680069800702D0284600F089F9AC
:10074000B00308D55FEAC96005D529681020486064
:10075000284600F07FF9F00307D55FEA097004D559
:1007600028684760284600F0A9F9300446D55FEABA
:10077000497040D5F00504D55FEAC87001D044F057
:100780000104B00504D55FEA887001D544F0020485
:10079000700504D55FEA487001D544F004043005C3
:1007A00029D518F0700F26D008F07000402815D019
:1007B00006DC102809D020280AD0302816D10AE0FB
:1007C00050280ED0602811D10EE044F008040DE04E
:1007D00044F010040AE044F0200407E044F0400430
:1007E00004E044F0800401E044F4807428688169E6
:1007F00021F070018161296804204860002C05D037
:10080000686A204368622846FFF789FEBDE8F09FCA
:1008100070B5040003D094F8200010B104E001206A
:1008200070BD204600F082F82068016841F00101A7
:10083000016000F047FA0546052604E000F042FAA0
:10084000401B0A2811D820684068C007F6D02068ED
:10085000016821F00201016000F034FA05460BE066
:1008600000F030FA401B0A2806D9606A40F40030D4
:10087000606284F82060D2E7206840688007EFD487
:10088000207E0128206801683DD021F080010160B0
:10089000607E01282068016838D021F040010160A5
:1008A000A07E01282068016833D021F0200101607A
:1008B000E07E0128206801682ED041F0100101601F
:1008C000207F01282068016829D021F008010160FB
:1008D000607F01282068016824D021F004010160B4
:1008E000D4E902010843D4E90412114308436168C2
:1008F000491E08432168C86100206062012084F815
:100900002000002070BD41F08001C0E741F04001AF
:10091000C5E741F02001CAE721F01001CFE741F01F
:100920000801D4E741F00401D9E7000010B586B012
:100930000021009101910291039100681F498842B2
:100940003AD11F48C16941F00071C161C16901F02C
:1009500000710491816941F0040181618069194C41
:1009600000F0040004904FF40060009069462046B7
:1009700000F0B8F8A014009002200190032003902A
:100980006946204600F0AEF800221146132000F020
:1009900005FA132000F0F4F900221146142000F0AB
:1009A000FDF9142000F0ECF900221146152000F0AA
:1009B000F5F9152000F0E4F906B010BD0064004020
:1009C00000100240000801407047000010B58CB0D4
:1009D00001AB03AA0021FFF7A3FD0398A0F20120B9
:1009E00006282DD81749C0B200EB800208701648BF
:1009F00000EB420130F812300B81BDF804305BBAD5
:100A000020F81230BDF806305BBA4B80BDF80830D4
:100A10005BBA8B809DF80A308B7130F81220B1F9E7
:100A200008104FF48053541A08489C4202DD0168B4
:100A3000491E04E0891A994202DD0168491C0160DF
:100A40000CB010BD08000020EC00002000000020C9
:100A5000704770477047000070B5044690F820005A
:100A6000012804D0606A40F40020606218E002208F
:100A700084F820002068016821F00101016000F085
:100A800021F905460EE000BF00F01CF9401B0A28C2
:100A900008D9606A40F400306062052084F82000C4
:100AA000012070BD20684068C007EDD1606270BD54
:100AB0007047704770477047704770477047000035
:100AC00070B5044600F0FEF80546601C02D00448EC
:100AD0000078044400F0F6F8401BA042FAD370BD41
:100AE000140000202DE9F84FDFF8B8910024A9F197
:100AF000040B23460F2709F1040AABF1040EC9E0E9
:100B00000125A5402A40AA427DD1674ED1F804C0F4
:100B1000ACEB0608B44532D014DCBCF1030F3AD07C
:100B200009DCBCF1000F2AD0BCF1010F1CD0BCF1D4
:100B3000020F31D11DE0BCF1110F17D0BCF1120F23
:100B40002AD119E0B8F5881F19D006DCB8F5803F26
:100B500015D0B8F5801F1FD111E0B8F5001F0ED0D9
:100B6000B8F5041F18D10AE0CB6815E0CB681B1D4F
:100B700012E0CB6808330FE0CB680C330CE08B68D5
:100B80002BB1012B4FF0080303D0456104E004238F
:100B900002E0056100E00023FF2A01D8064601E0DB
:100BA00000F104064FEA840501D9A5F12005D6F825
:100BB000008007FA05FC28EA0C0803FA05F548EA64
:100BC0000508C6F800804D68ED0062D5374DAE6966
:100BD00046F00106AE61AD6924F0030605F001059B
:100BE0000095334D06EB050CDCF80850A607360FD0
:100BF00007FA06F825EA0805DFF8B880404503D172
:100C00004FF0000817E044E0DFF8AC80404502D127
:100C10004FF001080FE0DFF8A480404502D14FF00B
:100C2000020808E0DFF89880404502D14FF0030841
:100C300001E04FF0040808FA06F848EA0508CCF885
:100C400008804D68D9F80060ED024D4601D5164385
:100C500000E096432E604D68DAF80060AD0255461C
:100C600001D5164300E096432E604D68DBF8006026
:100C7000AD035D4601D5164300E096432E604D68F6
:100C8000DEF80060ED03754601D5164300E096439B
:100C90002E60641C0D682A46E5407FF431AFBDE844
:100CA000F88F0000080401400000111000100240FD
:100CB0000000014000080140000C0140001001400C
:100CC00000140140014880687047000014000020B3
:100CD0000248816802781144816070471400002046
:100CE000074810B5016841F010010160032000F0D1
:100CF00075F80F2000F006F800F024F8002010BD71
:100D00000020024070B50D4D04464FF47A712878EA
:100D1000B1FBF0F00A490968B1FBF0F000F0BCFA51
:100D200048B9102C07D200222146501E00F036F898
:100D300000206C6070BD012070BD00001400002018
:100D4000200000200C4808B5816941F00101816153
:100D5000816901F001010091C16941F08051C161D7
:100D6000C06900F0805000900448416821F0E061C3
:100D700041F00071416008BD0010024000000140D8
:100D8000002809DB00F01F0201219140400980008A
:100D900000F1E020C0F8001170470000F0B40E4BE5
:100DA0001B680C46C3F30223C3F10705042D00D9C9
:100DB0000425191D072901D2002300E0DB1E0126AE
:100DC00006FA05F1491E214099409E40761E1640C4
:100DD0003143F0BC00F025BB0CED00E0064900F00B
:100DE000070208684FF6FF03184040EA0220034A52
:100DF00010430860704700000CED00E00000FA05A9
:100E00002DE9F0470F46050061D0434E306800F0F1
:100E10000700B84209D2306820F00700384330603C
:100E2000306800F00700B84251D128683B4C810778
:100E300012D5400703D5606840F4E0606060287810
:100E4000000703D5606840F4605060606068A9687E
:100E500020F0F000084360602878C00728D0686858
:100E6000012810D02168022810D0890700292EDA25
:100E7000616821F0030101436160FFF723FF8046B1
:100E800041F288390DE021688903EFE78901EDE738
:100E9000FFF718FFA0EB0801494502D90320BDE880
:100EA000F0876068696800F00C00B0EB810FEFD14B
:100EB000306800F00700B8420BD9306820F0070016
:100EC00038433060306800F00700B84201D001209C
:100ED000E5E72878400705D56068E96820F4E06018
:100EE000084360602878000706D56068296920F407
:100EF000605040EAC100606000F018F86168084A7C
:100F0000C1F30311515CC8400649086006480068F7
:100F1000FFF7F8FE0020C2E7002002400010024068
:100F2000BC1A000820000020180000200E4A51685A
:100F30000E4801F00C03042B11D0082B0FD10C48E4
:100F4000C1F38343C903C05C0AD55168084AC1F3A1
:100F50004041921E515C054A5043B0FBF1F070478E
:100F600004494843704700000010024000127A0014
:100F7000AC1A000800093D002DE9F84F040070D0BC
:100F80002078C04DC00749D06868C0F381000128AF
:100F900007D06868C0F38100022809D16868C003DF
:100FA00006D52868800339D560680028E7D035E089
:100FB0006068B0F5803F0BD010B1B0F5A02F11D014
:100FC000286820F480302860286820F4802002E01F
:100FD000286840F480302860606890B1FFF772FEA6
:100FE00006460AE0286840F480202860F0E700BF49
:100FF000FFF768FE801B642873D828688003F7D544
:101000000CE0FFF75FFE064605E000BFFFF75AFE63
:10101000801B6428F0D828688003F7D420789A4E83
:1010200080074FF001094FF0000839D5686810F0CB
:101030000C0F07D06868C0F38100022809D16868E6
:10104000C00306D42868800714D52069012808D178
:1010500010E02069B0B1C6F80090FFF733FE0746F4
:1010600005E00AE1FFF72EFEC01B0228C4D828685D
:101070008007F7D52868616920F0F80040EAC100D0
:1010800028600DE0C6F80080FFF71CFE074604E06C
:10109000FFF718FEC01B022823D828688007F7D462
:1010A000207800072CD57948A169D9B1C0F8009003
:1010B000FFF708FE074604E0FFF704FEC01B022806
:1010C0000FD8686A8007F7D571484FF4FA51006865
:1010D000B0FBF1F0009000BF0098411E0091FAD2E1
:1010E0000EE080E0C0F80080FFF7ECFD074604E06A
:1010F000FFF7E8FDC01B022875D8686A8007F7D49F
:101100002078400760D5E8690027C00008D4E86966
:1011100040F08050E861E869012700F080500090BD
:101120005C480168C90513D40168834641F48071A5
:101130000160FFF7C7FD824606E000BFFFF7C2FD72
:10114000A0EB0A0064284ED8DBF80000C005F5D5F6
:10115000E06801280AD008B1052813D0286A20F0D9
:1011600001002862286A20F0040002E0286A40F0AA
:1011700001002862E06841F2883B98B1FFF7A2FDC8
:1011800082460BE0286A40F004002862EEE700BFC8
:10119000FFF798FDA0EB0A0159455AD8286A800745
:1011A000F6D50CE0FFF78EFD824605E0FFF78AFDDD
:1011B000A0EB0A0159454CD8286A8007F6D41FB124
:1011C000E86920F08050E861E06988B36968C1F39C
:1011D0008101022944D00228C6F8608004D0FFF7BC
:1011E00071FD044638E034E0FFF76CFD074604E08B
:1011F000FFF768FDC01B02282BD828688001F7D4B0
:10120000206AB0F5803F05D16868A16820F40030FD
:1012100008436860D4E908010843696821F474113F
:1012200008436860C6F86090FFF74CFD044606E08E
:1012300025E000BFFFF746FD001B022809D82868FB
:101240008001F7D51BE000BFFFF73CFD001B022823
:1012500002D90320BDE8F88F28688001F4D40EE09D
:101260000128F7D06868226A00F48031914204D1E5
:10127000616A00F47010884201D00120EAE7002082
:10128000E8E70000001002400000424280044242B1
:10129000200000200070004010B5401EB0F1807F9B
:1012A00001D3012010BD4FF0E02460610F216017D1
:1012B00000F0B7F80020A06107202061002010BDD9
:1012C000FEE700000F4810B50D49016004214160A0
:1012D00000214FF4A0228160C0E903124FF4801274
:1012E0004261017641768176C17601774177FFF7D9
:1012F0008FFA002803D0BDE81040FFF726B810BDD4
:1013000000640040C4000020094808B5816941F02C
:1013100020018161816901F020010091816941F022
:1013200004018161806900F00400009008BD0000A4
:1013300000100240FEE7FEE72DE9F041144600F000
:10134000CFFAA061626A05460146104600F04CF9EA
:1013500011496062884202DC1049884200D961620A
:10136000E7692846394600F0BBFA616900F0ECF9FC
:101370000646616A206900F0E7F980462946E06880
:1013800000F0E2F9414600F02FF9314600F02CF967
:10139000C4E90757BDE8F08100007A4400007AC430
:1013A00070477047FFF794BC30B58FB0282168466E
:1013B000FEF73CFF14210AA8FEF738FF01210804BC
:1013C000CDE900100024029402250491CDE90750D4
:1013D0004FF4E01009906846FFF7CEFD08B172B6F1
:1013E000FEE70F20CDE90A054FF48060CDE90C40FF
:1013F00002210AA80E94FFF703FD002801D072B65F
:10140000FEE70FB030BD70470148FFF703B9000099
:10141000C40000200148FFF7FDB80000C400002010
:10142000FEE70907090E002804DB00F1E02080F840
:101430000014704700F00F0000F1E02080F8141D48
:101440007047000000B58BB000200121CDE90601F6
:1014500008910090019002900390059004906946D5
:101460000548FEF7E5FF0448FFF7F6FA02210248B7
:10147000FEF76DFF0BB000BDC400002000F00300BC
:10148000024900EB800001EB40007047EC000020B7
:101490008AB0FFF725FCFFF787FFFFF735FFFFF75F
:1014A00011FFFFF7CFFF4FF07E510B461A466846FB
:1014B00000F088F8282269460D48FEF785FE0D4B9E
:1014C0000D4A0E49684600F07DF809482822694611
:1014D0002830FEF779FEFFF7F5FBFFF7F3FB084C2A
:1014E000208800B200F00EF80520FFF7E9FAF7E7D0
:1014F00024000020CDCC4C3D6F12033B0000704116
:10150000040000202DE9F04104460020FFF7B6FF5B
:101510000746204600F0ECF8154D804668601548F7
:10152000006800F0E5F8144E314600F00DF904466D
:10153000388800F0F5F86FF00C0100F078FA3146C9
:1015400000F002F9214600F04FF80C4900F0FCF8D9
:101550000146A860404605F12802FFF7EDFE00F0C5
:10156000ABF800B200F00CF80020BDE8F0810000FC
:1015700024000020000000200000B443354C553DFD
:1015800070B504460020FFF779FF0546204600F0BD
:10159000AFF80B4904460860B5F9020000F0A8F85E
:1015A00001462046064AFFF7C7FE00F085F8BDE871
:1015B0007040002300B21A461946FEF7A1BE000093
:1015C0002400002000B58BB00DF10C0C8CE80E004F
:1015D0000021069107910891099128226946FEF79A
:1015E000F3FD0BB000BD000090EA010F48BF81F091
:1015F000004100F17C81421A3CBF801A89184FEAF1
:10160000D0524FF07F4C1CEA410FA2EBD15318BFD0
:101610009CEA026F00F03B804FF0004C4CEA002047
:101620004CEA012121FA03FC10EB0C0C1ED202F152
:10163000FF325FEA1C2040EBC25038BF70471CF0FD
:101640007F0F4FEA400C18BFBCF17F4F38BF704787
:10165000C3F12003994008BF20F00100BCF17F4F87
:1016600038BF7047A0F1C04000F035B94FEA3C00E8
:10167000000A40EBC25028BF1CF0FF0F4FEA400C9D
:10168000E6D018BFBCF17F4F38BF7047EAE79CEA4D
:10169000026F05D010EA5C0F08BF00F000407047F1
:1016A00010B500F0D2F800BF64FBBE3E014800F068
:1016B0008CB900BF0000C07F41000B0ED3F19E0229
:1016C00008D950F400034FEA032323FA02F048BF7D
:1016D0004042704710B500F0B8F800BF499224802E
:1016E000002070476FF0004282EA2000704700003F
:1016F00010F0004148BF4042B0FA80F310FA03F204
:10170000C3F19D030BD051EAC35101EB12205306E4
:1017100038BF704700F1010008BF20F0010070479A
:10172000B0FA80F310FA03F2C3F19D030AD0D90591
:1017300001EB1220530638BF704700F1010008BFCB
:1017400020F00100704700004FF47F0C1CEAD0121B
:101750001EBF1CEAD11392EA0C0F93EA0C0F00F0A3
:10176000478090EA010F48BF42F480724FF0004C6E
:101770004CEA00204CEA012102EB0302A0FB01131A
:10178000A2F50002002918BF43F001035B0028BF47
:101790004FEA330342EB22425FEA132C4CEBC25078
:1017A0002EBFBCEB436FB2F57C0F70474FEA036C62
:1017B000BCF1004F08BF20F00100B2F57C0F38BF2C
:1017C00070470BD582F0FF0212F5803FC8BF70470B
:1017D00000F1C040D8BF00F00040704700F5000C99
:1017E0005FEA4C0C48BF7047B0F1C04000F073B8DE
:1017F00090EA010F0CEAD11348BF42F480726245AF
:1018000038BF634504D280EA010000F00040704711
:1018100010B500F01AF800BF8900013E00F007B8CB
:1018200000F009B85FEA410C5FEA1C6C08D080EA5E
:10183000010000F050B85FEA400C5FEA1C6CF6D182
:101840004FF00040A0F5800070470EF1020E2EF020
:10185000030E5EF8044B244204D44FEA4102B2F175
:101860007F4F11D84FEA4003B3F17F4F0CD80ED110
:101870004FEAD07CB2F17F4F0CEB4C0C0CF1020C18
:1018800008BF4CEBD17C04E04FF0080C01E04FEABC
:10189000D17C0CEB4C0324FA03F404F00704B4F1FC
:1018A000040C06D20EEB840CBDE810404CF0010C89
:1018B0006047DFE80CF0070802024FF00040A0F597
:1018C000800010BD0846420018BFD2F1807288BF68
:1018D00000F0004010BDFF2141EAD050C005704724
:1018E00090EA010F48BF81F000413FF584AE421AF3
:1018F00004D882F00042A0EB020011444FEAD0521B
:101900004FF07F4C1CEA410FA2EBD15318BF9CEA69
:10191000026F4AD04FF0004C4CEA00204CEA012103
:1019200021FA03FCB0EB0C0C0FD412F0FE0F36D0F2
:101930005FEA4C001DD5001240EBC25038BF704723
:101940001CF03F0F18BF70470BE0A2F101025FEAE5
:101950001C2040EBC25038BF70471CF07F0F18BFEF
:101960007047C3F12003994014BF401E20F00100CE
:10197000704780084FEA122308BF7047B0FA80FC16
:10198000A2EB0C02CCF1280C60FA0CF093EA122FB7
:1019900004BF00EBC25070474FEAC3707047130A90
:1019A0005FEADC1008BF7047F6E79CEA026F04D0DC
:1019B00010EA5C0F08BF0020704710B5FFF745FF25
:1019C00040DFF63E81F0004070470CF00F03092B1A
:1019D00008BF082000F051800A2B0BD0082B18BF3D
:1019E000704708BF1CF0400F0AD04FF000004FF0C6
:1019F000000170471CF0400F18BF4FF000407047C7
:101A00001CF0100F08D020F0704300F07F4242EA33
:101A1000D3014FEA4370704700F0604021F07F42ED
:101A200042EA000201F07F4040EA727070474FF0D6
:101A3000FF0212EAD0521CBF92F0FF038B42C2BFDA
:101A4000D14200EBC1507047002A0AD0002B0BD0C6
:101A5000002900F00040A4BF40F0FE4040F4000028
:101A6000704700F00040704743024FF00B0C18BF66
:101A70004CF0806C7FF41AAE70471CF4801F11D0BC
:101A80001CF4E02F03D06FEACC31490070474FF0CF
:101A90004050EFF3008222F0704242EA000282F3EB
:101AA000008870474FF000007047010202030405F0
:101AB000060708090A0B0C0D0E0F1010000000009D
:101AC000000000000102030406070809EC1A0008E0
:101AD000000000202400000028010008101B00085E
:101AE000240000208C0700004401000800000000D2
:101AF000D002000000000000000000000000000014
:101B000001000000100000000000000000127A0038
:04000005080000ED02
:00000001FF
